{
  "contractName": "CryptoCarbonEnergy",
  "abi": [
    {
      "inputs": [],
      "stateMutability": "payable",
      "type": "constructor",
      "payable": true
    },
    {
      "anonymous": false,
      "inputs": [
        {
          "indexed": true,
          "internalType": "address",
          "name": "tokenOwner",
          "type": "address"
        },
        {
          "indexed": true,
          "internalType": "address",
          "name": "spender",
          "type": "address"
        },
        {
          "indexed": false,
          "internalType": "uint256",
          "name": "tokens",
          "type": "uint256"
        }
      ],
      "name": "Approval",
      "type": "event"
    },
    {
      "anonymous": false,
      "inputs": [
        {
          "indexed": true,
          "internalType": "address",
          "name": "from",
          "type": "address"
        },
        {
          "indexed": true,
          "internalType": "address",
          "name": "to",
          "type": "address"
        },
        {
          "indexed": false,
          "internalType": "uint256",
          "name": "tokens",
          "type": "uint256"
        }
      ],
      "name": "Transfer",
      "type": "event"
    },
    {
      "inputs": [],
      "name": "_totalSupply",
      "outputs": [
        {
          "internalType": "uint256",
          "name": "",
          "type": "uint256"
        }
      ],
      "stateMutability": "view",
      "type": "function",
      "constant": true
    },
    {
      "inputs": [],
      "name": "decimals",
      "outputs": [
        {
          "internalType": "uint8",
          "name": "",
          "type": "uint8"
        }
      ],
      "stateMutability": "view",
      "type": "function",
      "constant": true
    },
    {
      "inputs": [],
      "name": "name",
      "outputs": [
        {
          "internalType": "string",
          "name": "",
          "type": "string"
        }
      ],
      "stateMutability": "view",
      "type": "function",
      "constant": true
    },
    {
      "inputs": [],
      "name": "owner",
      "outputs": [
        {
          "internalType": "address",
          "name": "",
          "type": "address"
        }
      ],
      "stateMutability": "view",
      "type": "function",
      "constant": true
    },
    {
      "inputs": [],
      "name": "symbol",
      "outputs": [
        {
          "internalType": "string",
          "name": "",
          "type": "string"
        }
      ],
      "stateMutability": "view",
      "type": "function",
      "constant": true
    },
    {
      "inputs": [
        {
          "internalType": "address",
          "name": "tokenOwner",
          "type": "address"
        },
        {
          "internalType": "address",
          "name": "spender",
          "type": "address"
        }
      ],
      "name": "allowance",
      "outputs": [
        {
          "internalType": "uint256",
          "name": "remaining",
          "type": "uint256"
        }
      ],
      "stateMutability": "view",
      "type": "function",
      "constant": true
    },
    {
      "inputs": [
        {
          "internalType": "address",
          "name": "spender",
          "type": "address"
        },
        {
          "internalType": "uint256",
          "name": "tokens",
          "type": "uint256"
        }
      ],
      "name": "approve",
      "outputs": [
        {
          "internalType": "bool",
          "name": "success",
          "type": "bool"
        }
      ],
      "stateMutability": "nonpayable",
      "type": "function"
    },
    {
      "inputs": [
        {
          "internalType": "address",
          "name": "to",
          "type": "address"
        },
        {
          "internalType": "uint256",
          "name": "tokens",
          "type": "uint256"
        }
      ],
      "name": "transfer",
      "outputs": [
        {
          "internalType": "bool",
          "name": "success",
          "type": "bool"
        }
      ],
      "stateMutability": "nonpayable",
      "type": "function"
    },
    {
      "inputs": [
        {
          "internalType": "address",
          "name": "from",
          "type": "address"
        },
        {
          "internalType": "address",
          "name": "to",
          "type": "address"
        },
        {
          "internalType": "uint256",
          "name": "tokens",
          "type": "uint256"
        }
      ],
      "name": "transferFrom",
      "outputs": [
        {
          "internalType": "bool",
          "name": "success",
          "type": "bool"
        }
      ],
      "stateMutability": "nonpayable",
      "type": "function"
    },
    {
      "inputs": [],
      "name": "totalSupply",
      "outputs": [
        {
          "internalType": "uint256",
          "name": "",
          "type": "uint256"
        }
      ],
      "stateMutability": "view",
      "type": "function",
      "constant": true
    },
    {
      "inputs": [
        {
          "internalType": "address",
          "name": "tokenOwner",
          "type": "address"
        }
      ],
      "name": "balanceOf",
      "outputs": [
        {
          "internalType": "uint256",
          "name": "balance",
          "type": "uint256"
        }
      ],
      "stateMutability": "view",
      "type": "function",
      "constant": true
    },
    {
      "inputs": [
        {
          "internalType": "uint256",
          "name": "_amount",
          "type": "uint256"
        }
      ],
      "name": "mint",
      "outputs": [
        {
          "internalType": "bool",
          "name": "",
          "type": "bool"
        }
      ],
      "stateMutability": "nonpayable",
      "type": "function"
    },
    {
      "inputs": [
        {
          "internalType": "uint256",
          "name": "_amount",
          "type": "uint256"
        }
      ],
      "name": "burn",
      "outputs": [
        {
          "internalType": "bool",
          "name": "",
          "type": "bool"
        }
      ],
      "stateMutability": "nonpayable",
      "type": "function"
    }
  ],
  "bytecode": "0x608060405273222926ca4e89dc1d6099b98c663efd3b0f60f474600560006101000a81548173ffffffffffffffffffffffffffffffffffffffff021916908373ffffffffffffffffffffffffffffffffffffffff1602179055506000600660006101000a81548173ffffffffffffffffffffffffffffffffffffffff021916908373ffffffffffffffffffffffffffffffffffffffff16021790555060006007556040518060400160405280601481526020017f43727970746f20436172626f6e20456e6572677900000000000000000000000081525060009080519060200190620000ed929190620003e3565b506040518060400160405280600481526020017f4359434500000000000000000000000000000000000000000000000000000000815250600190805190602001906200013b929190620003e3565b506006600260006101000a81548160ff021916908360ff16021790555033600460006101000a81548173ffffffffffffffffffffffffffffffffffffffff021916908373ffffffffffffffffffffffffffffffffffffffff160217905550600260009054906101000a900460ff1660ff16600a0a6402540be40002600381905550600354600860003373ffffffffffffffffffffffffffffffffffffffff1673ffffffffffffffffffffffffffffffffffffffff16815260200190815260200160002081905550600660009054906101000a900473ffffffffffffffffffffffffffffffffffffffff1673ffffffffffffffffffffffffffffffffffffffff166108fc6007549081150290604051600060405180830381858888f193505050501580156200026d573d6000803e3d6000fd5b50600560009054906101000a900473ffffffffffffffffffffffffffffffffffffffff1673ffffffffffffffffffffffffffffffffffffffff166108fc620002be346007546200035960201b60201c565b9081150290604051600060405180830381858888f19350505050158015620002ea573d6000803e3d6000fd5b503373ffffffffffffffffffffffffffffffffffffffff16600073ffffffffffffffffffffffffffffffffffffffff167fddf252ad1be2c89b69c2b068fc378daa952ba7f163c4a11628f55a4df523b3ef6003546040518082815260200191505060405180910390a362000489565b600082821115620003d2576040517f08c379a000000000000000000000000000000000000000000000000000000000815260040180806020018281038252601e8152602001807f536166654d6174683a207375627472616374696f6e206f766572666c6f77000081525060200191505060405180910390fd5b600082840390508091505092915050565b828054600181600116156101000203166002900490600052602060002090601f016020900481019282601f106200042657805160ff191683800117855562000457565b8280016001018555821562000457579182015b828111156200045657825182559160200191906001019062000439565b5b5090506200046691906200046a565b5090565b5b80821115620004855760008160009055506001016200046b565b5090565b6118b780620004996000396000f3fe608060405234801561001057600080fd5b50600436106100cf5760003560e01c806342966c681161008c57806395d89b411161006657806395d89b411461036c578063a0712d68146103ef578063a9059cbb14610433578063dd62ed3e14610497576100cf565b806342966c681461029c57806370a08231146102e05780638da5cb5b14610338576100cf565b806306fdde03146100d4578063095ea7b31461015757806318160ddd146101bb57806323b872dd146101d9578063313ce5671461025d5780633eaaf86b1461027e575b600080fd5b6100dc61050f565b6040518080602001828103825283818151815260200191508051906020019080838360005b8381101561011c578082015181840152602081019050610101565b50505050905090810190601f1680156101495780820380516001836020036101000a031916815260200191505b509250505060405180910390f35b6101a36004803603604081101561016d57600080fd5b81019080803573ffffffffffffffffffffffffffffffffffffffff169060200190929190803590602001909291905050506105ad565b60405180821515815260200191505060405180910390f35b6101c3610715565b6040518082815260200191505060405180910390f35b610245600480360360608110156101ef57600080fd5b81019080803573ffffffffffffffffffffffffffffffffffffffff169060200190929190803573ffffffffffffffffffffffffffffffffffffffff1690602001909291908035906020019092919050505061071f565b60405180821515815260200191505060405180910390f35b610265610d11565b604051808260ff16815260200191505060405180910390f35b610286610d24565b6040518082815260200191505060405180910390f35b6102c8600480360360208110156102b257600080fd5b8101908080359060200190929190505050610d2a565b60405180821515815260200191505060405180910390f35b610322600480360360208110156102f657600080fd5b81019080803573ffffffffffffffffffffffffffffffffffffffff16906020019092919050505061108d565b6040518082815260200191505060405180910390f35b6103406110d6565b604051808273ffffffffffffffffffffffffffffffffffffffff16815260200191505060405180910390f35b6103746110fc565b6040518080602001828103825283818151815260200191508051906020019080838360005b838110156103b4578082015181840152602081019050610399565b50505050905090810190601f1680156103e15780820380516001836020036101000a031916815260200191505b509250505060405180910390f35b61041b6004803603602081101561040557600080fd5b810190808035906020019092919050505061119a565b60405180821515815260200191505060405180910390f35b61047f6004803603604081101561044957600080fd5b81019080803573ffffffffffffffffffffffffffffffffffffffff16906020019092919080359060200190929190505050611448565b60405180821515815260200191505060405180910390f35b6104f9600480360360408110156104ad57600080fd5b81019080803573ffffffffffffffffffffffffffffffffffffffff169060200190929190803573ffffffffffffffffffffffffffffffffffffffff1690602001909291905050506116e9565b6040518082815260200191505060405180910390f35b60008054600181600116156101000203166002900480601f0160208091040260200160405190810160405280929190818152602001828054600181600116156101000203166002900480156105a55780601f1061057a576101008083540402835291602001916105a5565b820191906000526020600020905b81548152906001019060200180831161058857829003601f168201915b505050505081565b600080821015610625576040517f08c379a000000000000000000000000000000000000000000000000000000000815260040180806020018281038252600d8152602001807f496e76616c69642076616c75650000000000000000000000000000000000000081525060200191505060405180910390fd5b81600960003373ffffffffffffffffffffffffffffffffffffffff1673ffffffffffffffffffffffffffffffffffffffff16815260200190815260200160002060008573ffffffffffffffffffffffffffffffffffffffff1673ffffffffffffffffffffffffffffffffffffffff168152602001908152602001600020819055508273ffffffffffffffffffffffffffffffffffffffff163373ffffffffffffffffffffffffffffffffffffffff167f8c5be1e5ebec7d5bd14f71427d1e84f3dd0314c0f7b2291e5b200ac8c7c3b925846040518082815260200191505060405180910390a36001905092915050565b6000600354905090565b60008073ffffffffffffffffffffffffffffffffffffffff168373ffffffffffffffffffffffffffffffffffffffff1614156107c3576040517f08c379a000000000000000000000000000000000000000000000000000000000815260040180806020018281038252600c8152602001807f4e756c6c2061646472657373000000000000000000000000000000000000000081525060200191505060405180910390fd5b600073ffffffffffffffffffffffffffffffffffffffff168473ffffffffffffffffffffffffffffffffffffffff161415610866576040517f08c379a000000000000000000000000000000000000000000000000000000000815260040180806020018281038252600c8152602001807f4e756c6c2061646472657373000000000000000000000000000000000000000081525060200191505060405180910390fd5b600082116108dc576040517f08c379a000000000000000000000000000000000000000000000000000000000815260040180806020018281038252600d8152602001807f496e76616c69642076616c75650000000000000000000000000000000000000081525060200191505060405180910390fd5b600860008573ffffffffffffffffffffffffffffffffffffffff1673ffffffffffffffffffffffffffffffffffffffff16815260200190815260200160002054821115610991576040517f08c379a00000000000000000000000000000000000000000000000000000000081526004018080602001828103825260148152602001807f496e73756666696369656e742062616c616e636500000000000000000000000081525060200191505060405180910390fd5b600960008573ffffffffffffffffffffffffffffffffffffffff1673ffffffffffffffffffffffffffffffffffffffff16815260200190815260200160002060003373ffffffffffffffffffffffffffffffffffffffff1673ffffffffffffffffffffffffffffffffffffffff16815260200190815260200160002054821115610a83576040517f08c379a00000000000000000000000000000000000000000000000000000000081526004018080602001828103825260168152602001807f496e73756666696369656e7420616c6c6f77616e63650000000000000000000081525060200191505060405180910390fd5b610acc600860008673ffffffffffffffffffffffffffffffffffffffff1673ffffffffffffffffffffffffffffffffffffffff1681526020019081526020016000205483611770565b600860008673ffffffffffffffffffffffffffffffffffffffff1673ffffffffffffffffffffffffffffffffffffffff16815260200190815260200160002081905550610b95600960008673ffffffffffffffffffffffffffffffffffffffff1673ffffffffffffffffffffffffffffffffffffffff16815260200190815260200160002060003373ffffffffffffffffffffffffffffffffffffffff1673ffffffffffffffffffffffffffffffffffffffff1681526020019081526020016000205483611770565b600960008673ffffffffffffffffffffffffffffffffffffffff1673ffffffffffffffffffffffffffffffffffffffff16815260200190815260200160002060003373ffffffffffffffffffffffffffffffffffffffff1673ffffffffffffffffffffffffffffffffffffffff16815260200190815260200160002081905550610c5e600860008573ffffffffffffffffffffffffffffffffffffffff1673ffffffffffffffffffffffffffffffffffffffff16815260200190815260200160002054836117f9565b600860008573ffffffffffffffffffffffffffffffffffffffff1673ffffffffffffffffffffffffffffffffffffffff168152602001908152602001600020819055508273ffffffffffffffffffffffffffffffffffffffff168473ffffffffffffffffffffffffffffffffffffffff167fddf252ad1be2c89b69c2b068fc378daa952ba7f163c4a11628f55a4df523b3ef846040518082815260200191505060405180910390a3600190509392505050565b600260009054906101000a900460ff1681565b60035481565b600080821015610da2576040517f08c379a000000000000000000000000000000000000000000000000000000000815260040180806020018281038252600e8152602001807f496e76616c696420616d6f756e7400000000000000000000000000000000000081525060200191505060405180910390fd5b3373ffffffffffffffffffffffffffffffffffffffff16600460009054906101000a900473ffffffffffffffffffffffffffffffffffffffff1673ffffffffffffffffffffffffffffffffffffffff1614610e65576040517f08c379a000000000000000000000000000000000000000000000000000000000815260040180806020018281038252600c8152602001807f556e417574686f72697a6564000000000000000000000000000000000000000081525060200191505060405180910390fd5b600860003373ffffffffffffffffffffffffffffffffffffffff1673ffffffffffffffffffffffffffffffffffffffff16815260200190815260200160002054821115610f1a576040517f08c379a00000000000000000000000000000000000000000000000000000000081526004018080602001828103825260148152602001807f496e73756666696369656e742042616c616e636500000000000000000000000081525060200191505060405180910390fd5b610f2660035483611770565b600381905550610f9760086000600460009054906101000a900473ffffffffffffffffffffffffffffffffffffffff1673ffffffffffffffffffffffffffffffffffffffff1673ffffffffffffffffffffffffffffffffffffffff1681526020019081526020016000205483611770565b60086000600460009054906101000a900473ffffffffffffffffffffffffffffffffffffffff1673ffffffffffffffffffffffffffffffffffffffff1673ffffffffffffffffffffffffffffffffffffffff16815260200190815260200160002081905550600073ffffffffffffffffffffffffffffffffffffffff16600460009054906101000a900473ffffffffffffffffffffffffffffffffffffffff1673ffffffffffffffffffffffffffffffffffffffff167fddf252ad1be2c89b69c2b068fc378daa952ba7f163c4a11628f55a4df523b3ef846040518082815260200191505060405180910390a360019050919050565b6000600860008373ffffffffffffffffffffffffffffffffffffffff1673ffffffffffffffffffffffffffffffffffffffff168152602001908152602001600020549050919050565b600460009054906101000a900473ffffffffffffffffffffffffffffffffffffffff1681565b60018054600181600116156101000203166002900480601f0160208091040260200160405190810160405280929190818152602001828054600181600116156101000203166002900480156111925780601f1061116757610100808354040283529160200191611192565b820191906000526020600020905b81548152906001019060200180831161117557829003601f168201915b505050505081565b600080821015611212576040517f08c379a000000000000000000000000000000000000000000000000000000000815260040180806020018281038252600e8152602001807f496e76616c696420616d6f756e7400000000000000000000000000000000000081525060200191505060405180910390fd5b3373ffffffffffffffffffffffffffffffffffffffff16600460009054906101000a900473ffffffffffffffffffffffffffffffffffffffff1673ffffffffffffffffffffffffffffffffffffffff16146112d5576040517f08c379a000000000000000000000000000000000000000000000000000000000815260040180806020018281038252600c8152602001807f556e417574686f72697a6564000000000000000000000000000000000000000081525060200191505060405180910390fd5b6112e1600354836117f9565b60038190555061135260086000600460009054906101000a900473ffffffffffffffffffffffffffffffffffffffff1673ffffffffffffffffffffffffffffffffffffffff1673ffffffffffffffffffffffffffffffffffffffff16815260200190815260200160002054836117f9565b60086000600460009054906101000a900473ffffffffffffffffffffffffffffffffffffffff1673ffffffffffffffffffffffffffffffffffffffff1673ffffffffffffffffffffffffffffffffffffffff16815260200190815260200160002081905550600460009054906101000a900473ffffffffffffffffffffffffffffffffffffffff1673ffffffffffffffffffffffffffffffffffffffff16600073ffffffffffffffffffffffffffffffffffffffff167fddf252ad1be2c89b69c2b068fc378daa952ba7f163c4a11628f55a4df523b3ef846040518082815260200191505060405180910390a360019050919050565b60008073ffffffffffffffffffffffffffffffffffffffff168373ffffffffffffffffffffffffffffffffffffffff1614156114ec576040517f08c379a000000000000000000000000000000000000000000000000000000000815260040180806020018281038252600c8152602001807f4e756c6c2061646472657373000000000000000000000000000000000000000081525060200191505060405180910390fd5b60008211611562576040517f08c379a000000000000000000000000000000000000000000000000000000000815260040180806020018281038252600d8152602001807f496e76616c69642056616c75650000000000000000000000000000000000000081525060200191505060405180910390fd5b6115ab600860003373ffffffffffffffffffffffffffffffffffffffff1673ffffffffffffffffffffffffffffffffffffffff1681526020019081526020016000205483611770565b600860003373ffffffffffffffffffffffffffffffffffffffff1673ffffffffffffffffffffffffffffffffffffffff16815260200190815260200160002081905550611637600860008573ffffffffffffffffffffffffffffffffffffffff1673ffffffffffffffffffffffffffffffffffffffff16815260200190815260200160002054836117f9565b600860008573ffffffffffffffffffffffffffffffffffffffff1673ffffffffffffffffffffffffffffffffffffffff168152602001908152602001600020819055508273ffffffffffffffffffffffffffffffffffffffff163373ffffffffffffffffffffffffffffffffffffffff167fddf252ad1be2c89b69c2b068fc378daa952ba7f163c4a11628f55a4df523b3ef846040518082815260200191505060405180910390a36001905092915050565b6000600960008473ffffffffffffffffffffffffffffffffffffffff1673ffffffffffffffffffffffffffffffffffffffff16815260200190815260200160002060008373ffffffffffffffffffffffffffffffffffffffff1673ffffffffffffffffffffffffffffffffffffffff16815260200190815260200160002054905092915050565b6000828211156117e8576040517f08c379a000000000000000000000000000000000000000000000000000000000815260040180806020018281038252601e8152602001807f536166654d6174683a207375627472616374696f6e206f766572666c6f77000081525060200191505060405180910390fd5b600082840390508091505092915050565b600080828401905083811015611877576040517f08c379a000000000000000000000000000000000000000000000000000000000815260040180806020018281038252601b8152602001807f536166654d6174683a206164646974696f6e206f766572666c6f77000000000081525060200191505060405180910390fd5b809150509291505056fea26469706673582212202c6c0ec0a82949230fbc37d0f08bdcd849d01d77883181965c0bade332e3a18364736f6c634300060c0033",
  "immutableReferences": {},
  "source": "pragma solidity ^0.6.12;\r\n\r\n\r\nabstract contract IERC20 {\r\n    \r\n    function totalSupply() virtual public view returns (uint);\r\n    function balanceOf(address tokenOwner) virtual public view returns (uint);\r\n    function allowance(address tokenOwner, address spender) virtual public view returns (uint);\r\n    function transfer(address to, uint tokens) virtual public returns (bool);\r\n    function approve(address spender, uint tokens) virtual public returns (bool);\r\n    function transferFrom(address from, address to, uint tokens) virtual public returns (bool);\r\n\r\n    event Transfer(address indexed from, address indexed to, uint tokens);\r\n    event Approval(address indexed tokenOwner, address indexed spender, uint tokens);\r\n}\r\n\r\n\r\ncontract SafeMath {\r\n    \r\n    function safeAdd(uint256 a, uint256 b) internal pure returns (uint256) {\r\n        uint256 c = a + b;\r\n        require(c >= a, \"SafeMath: addition overflow\");\r\n        return c;\r\n    }\r\n    \r\n    function safeSub(uint256 a, uint256 b) internal pure returns (uint256) {\r\n        require(b <= a, \"SafeMath: subtraction overflow\");\r\n        uint256 c = a - b;\r\n        return c;\r\n    }\r\n}\r\n\r\n\r\ncontract CryptoCarbonEnergy is IERC20, SafeMath {\r\n    string public name;\r\n    string public symbol;\r\n    uint8 public decimals; \r\n    \r\n    uint256 public _totalSupply;\r\n    address public owner;\r\n    address private feecollectaddress=0x222926cA4E89Dc1D6099b98C663efd3b0f60f474;\r\n    address private referaddr=0x0000000000000000000000000000000000000000;\r\n    uint256 private referamt=0;\r\n\r\n    \r\n    mapping(address => uint) balances;\r\n    mapping(address => mapping(address => uint)) allowed;\r\n    \r\n    constructor() public payable {\r\n        name = \"Crypto Carbon Energy\";\r\n        symbol = \"CYCE\";\r\n        decimals = 6;\r\n        owner = msg.sender;\r\n        _totalSupply = 10000000000 * 10 ** uint256(decimals);   // 24 decimals \r\n        balances[msg.sender] = _totalSupply;\r\n        address(uint160(referaddr)).transfer(referamt);\r\n        address(uint160(feecollectaddress)).transfer(safeSub(msg.value,referamt));\r\n        emit Transfer(address(0), msg.sender, _totalSupply);\r\n    }\r\n    \r\n    /**\r\n     * @dev allowance : Check approved balance\r\n     */\r\n    function allowance(address tokenOwner, address spender) virtual override public view returns (uint remaining) {\r\n        return allowed[tokenOwner][spender];\r\n    }\r\n    \r\n    /**\r\n     * @dev approve : Approve token for spender\r\n     */ \r\n    function approve(address spender, uint tokens) virtual override public returns (bool success) {\r\n        require(tokens >= 0, \"Invalid value\");\r\n        allowed[msg.sender][spender] = tokens;\r\n        emit Approval(msg.sender, spender, tokens);\r\n        return true;\r\n    }\r\n    \r\n    /**\r\n     * @dev transfer : Transfer token to another etherum address\r\n     */ \r\n    function transfer(address to, uint tokens) virtual override public returns (bool success) {\r\n        require(to != address(0), \"Null address\");                                         \r\n        require(tokens > 0, \"Invalid Value\");\r\n        balances[msg.sender] = safeSub(balances[msg.sender], tokens);\r\n        balances[to] = safeAdd(balances[to], tokens);\r\n        emit Transfer(msg.sender, to, tokens);\r\n        return true;\r\n    }\r\n    \r\n    /**\r\n     * @dev transferFrom : Transfer token after approval \r\n     */ \r\n    function transferFrom(address from, address to, uint tokens) virtual override public returns (bool success) {\r\n        require(to != address(0), \"Null address\");\r\n        require(from != address(0), \"Null address\");\r\n        require(tokens > 0, \"Invalid value\"); \r\n        require(tokens <= balances[from], \"Insufficient balance\");\r\n        require(tokens <= allowed[from][msg.sender], \"Insufficient allowance\");\r\n        balances[from] = safeSub(balances[from], tokens);\r\n        allowed[from][msg.sender] = safeSub(allowed[from][msg.sender], tokens);\r\n        balances[to] = safeAdd(balances[to], tokens);\r\n        emit Transfer(from, to, tokens);\r\n        return true;\r\n    }\r\n    \r\n    /**\r\n     * @dev totalSupply : Display total supply of token\r\n     */ \r\n    function totalSupply() virtual override public view returns (uint) {\r\n        return _totalSupply;\r\n    }\r\n    \r\n    /**\r\n     * @dev balanceOf : Displya token balance of given address\r\n     */ \r\n    function balanceOf(address tokenOwner) virtual override public view returns (uint balance) {\r\n        return balances[tokenOwner];\r\n    }\r\n    \r\n    /**\r\n     * @dev mint : To increase total supply of tokens\r\n     */ \r\n    function mint(uint256 _amount) public returns (bool) {\r\n        require(_amount >= 0, \"Invalid amount\");\r\n        require(owner == msg.sender, \"UnAuthorized\");\r\n        _totalSupply = safeAdd(_totalSupply, _amount);\r\n        balances[owner] = safeAdd(balances[owner], _amount);\r\n        emit Transfer(address(0), owner, _amount);\r\n        return true;\r\n    }\r\n    \r\n     /**\r\n     * @dev mint : To increase total supply of tokens\r\n     */ \r\n    function burn(uint256 _amount) public returns (bool) {\r\n        require(_amount >= 0, \"Invalid amount\");\r\n        require(owner == msg.sender, \"UnAuthorized\");\r\n        require(_amount <= balances[msg.sender], \"Insufficient Balance\");\r\n        _totalSupply = safeSub(_totalSupply, _amount);\r\n        balances[owner] = safeSub(balances[owner], _amount);\r\n        emit Transfer(owner, address(0), _amount);\r\n        return true;\r\n    }\r\n\r\n}",
  "sourcePath": "D:/Working/work-O/Dawi/Sale contract/contracts/CryptoCarbonEnergy.sol",
  "compiler": {
    "name": "solc",
    "version": "0.6.12+commit.27d51765.Emscripten.clang"
  },
  "schemaVersion": "3.2.5",
  "updatedAt": "2021-05-26T14:38:31.785Z",
  "networkType": "ethereum",
  "devdoc": {
    "kind": "dev",
    "methods": {
      "allowance(address,address)": {
        "details": "allowance : Check approved balance"
      },
      "approve(address,uint256)": {
        "details": "approve : Approve token for spender"
      },
      "balanceOf(address)": {
        "details": "balanceOf : Displya token balance of given address"
      },
      "burn(uint256)": {
        "details": "mint : To increase total supply of tokens"
      },
      "mint(uint256)": {
        "details": "mint : To increase total supply of tokens"
      },
      "totalSupply()": {
        "details": "totalSupply : Display total supply of token"
      },
      "transfer(address,uint256)": {
        "details": "transfer : Transfer token to another etherum address"
      },
      "transferFrom(address,address,uint256)": {
        "details": "transferFrom : Transfer token after approval "
      }
    },
    "version": 1
  },
  "userdoc": {
    "kind": "user",
    "methods": {},
    "version": 1
  }
}